:100000000C945D000C9485000C9485000C94850084
:100010000C9485000C9485000C9485000C9485004C
:100020000C9485000C9485000C9485000C9485003C
:100030000C9485000C9485000C9485000C9485002C
:100040000C947E010C9485000C9485000C94850022
:100050000C9485000C9485000C9485000C9485000C
:100060000C9485000C9485000000000024002700FB
:100070002A0000000000250028002B0004040404CE
:100080000404040402020202020203030303030342
:10009000010204081020408001020408102001021F
:1000A00004081020000000080002010000030407FB
:1000B0000000000000000000560211241FBECFEF18
:1000C000D8E0DEBFCDBF11E0A0E0B1E0ECE0F5E0AC
:1000D00002C005900D92AA30B107D9F721E0AAE03D
:1000E000B1E001C01D92A632B207E1F710E0CDE504
:1000F000D0E004C02197FE010E947E02CC35D107DA
:10010000C9F70E94C8010C9484020C940000E1EB32
:10011000F0E02491EDE9F0E09491E9E8F0E0E49179
:10012000EE23C9F0222339F0233001F1A8F4213065
:1001300019F1223029F1F0E0EE0FFF1FEE58FF4FCA
:10014000A591B4912FB7F894EC91811126C09095A8
:100150009E239C932FBF08952730A9F02830C9F023
:10016000243049F7209180002F7D03C0209180002A
:100170002F7720938000DFCF24B52F7724BDDBCFEE
:1001800024B52F7DFBCF2091B0002F772093B000B6
:10019000D2CF2091B0002F7DF9CF9E2BDACF3FB781
:1001A000F8948091220190912301A0912401B091B3
:1001B000250126B5A89B05C02F3F19F00196A11D6A
:1001C000B11D3FBFBA2FA92F982F8827BC01CD01A1
:1001D000620F711D811D911D42E0660F771F881F00
:1001E000991F4A95D1F708958F929F92AF92BF922F
:1001F000CF92DF92EF92FF920E94CF004B015C0101
:1002000088E8C82E83E1D82EE12CF12C0E94CF0083
:10021000681979098A099B09683E7340810591052F
:10022000A8F321E0C21AD108E108F10888EE880E8F
:1002300083E0981EA11CB11CC114D104E104F10497
:1002400029F7FF90EF90DF90CF90BF90AF909F90F5
:100250008F90089581E00E9487000E94F40080E062
:100260000E9487000E94F400F5CFFC014283538373
:100270006483758386819781A085B185840F951FDE
:10028000A61FB71F82879387A487B5870895CF934A
:10029000DF93EC01EE85FF85309709F009958FB764
:1002A000F89440911E0150911F01609120017091BE
:1002B00021018FBF4E835F83688779878A819B8105
:1002C000AC81BD81840F951FA61FB71F8A879B87AE
:1002D000AC87BD87DF91CF9108950F931F93FC01E9
:1002E0000285138524853585401B510B620B730BEA
:1002F00080E077FF80891F910F9108951F920F92E0
:100300000FB60F9211242F933F938F939F93AF9328
:10031000BF9380911E0190911F01A0912001B09187
:10032000210130911D0123E0230F2D3758F501964F
:10033000A11DB11D20931D0180931E0190931F01EB
:10034000A0932001B093210180912201909123017B
:10035000A0912401B09125010196A11DB11D8093AA
:10036000220190932301A0932401B0932501BF9112
:10037000AF919F918F913F912F910F900FBE0F9052
:100380001F90189526E8230F0296A11DB11DD2CF0C
:10039000789484B5826084BD84B5816084BD85B560
:1003A000826085BD85B5816085BD80916E0081606C
:1003B00080936E0010928100809181008260809312
:1003C0008100809181008160809381008091800014
:1003D0008160809380008091B10084608093B1003F
:1003E0008091B00081608093B00080917A00846039
:1003F00080937A0080917A00826080937A00809165
:100400007A00816080937A0080917A00806880937E
:100410007A001092C100EDE9F0E02491E9E8F0E003
:100420008491882399F090E0880F991FFC01E85986
:10043000FF4FA591B491FC01EE58FF4F8591949127
:100440008FB7F894EC91E22BEC938FBF8AE291E0A6
:10045000909319018093180188E893E1A0E0B0E03F
:1004600080930C0190930D01A0930E01B0930F01A6
:100470008091100190911101A0911201B09113018E
:1004800088579C4EAF4FBF4F809314019093150136
:10049000A0931601B093170181E080931A01C0E088
:1004A000D0E02097F1F30E940000FBCFEAE0F1E0FA
:1004B00084E091E09183808381E0808B17861686AB
:1004C00012861386148615862FB7F89480911E0124
:1004D00090911F01A0912001B09121012FBF86832F
:1004E0009783A087B187F28BE18B128213821482EB
:1004F000158282879387A487B5870895EE0FFF1F23
:0C0500000590F491E02D0994F894FFCFD1
:0A050C000000000035016D014701F9
:00000001FF
