:020000040000FA
:100000000C9454000C9468040C9454050C947C00DB
:100010000C947C000C947C000C947C000C942105C6
:100020000C947C000C947C000C947C000C94DC04FC
:100030000C947C000C9484050C947C000C947C0043
:100040000C94C6030C947C000C9436040C9410049D
:100050000C947C000C947C000C947C000C947C0030
:100060000C947C000C947C0000000000250028000B
:100070002B0000000000240027002A0004040404D0
:100080000404040402020202020203030303030342
:10009000020102040810204080010204081020011F
:1000A000020408102080F10611241FBECFEFD8E013
:1000B000DEBFCDBF11E0A0E0B1E0E2E5F5E102C0B6
:1000C00005900D92A03FB107D9F722E0A0EFB1E073
:1000D00001C01D92AA3CB207E1F710E0C4E5D0E0F0
:1000E00004C02197FE010E947C09C335D107C9F7DE
:1000F0000E94DC050C94A70A0C940000AF92BF92FA
:10010000CF92DF92EF92FF920F931F93CF93DF93E3
:100110006C017B018B01040F151FEB015E01AE1812
:10012000BF08C017D10759F06991D601ED91FC9134
:100130000190F081E02DC6010995892B79F7C50161
:10014000DF91CF911F910F91FF90EF90DF90CF90B3
:10015000BF90AF900895FC01538D448D252F30E062
:10016000842F90E0821B930B541710F0CF960895C4
:1001700001970895FC01918D828D981761F0A28DF1
:10018000AE0FBF2FB11D5D968C91928D9F5F9F73B7
:10019000928F90E008958FEF9FEF0895FC01918D6D
:1001A000828D981731F0828DE80FF11D858D90E0DA
:1001B00008958FEF9FEF0895FC01918D228D892F77
:1001C00090E0805C9F4F821B91098F73992708955F
:1001D00089E092E00E94DC0021E0892B09F420E014
:1001E000822F089580E090E0892B29F00E94E8009A
:1001F00081110C9400000895FC01A48DA80FB92F63
:10020000B11DA35ABF4F2C91848D90E001968F733E
:100210009927848FA689B7892C93A089B1898C915D
:10022000837080648C93938D848D981306C00288AC
:10023000F389E02D80818F7D80830895EF92FF9276
:100240000F931F93CF93DF93EC0181E0888F9B8DF9
:100250008C8D98131AC0E889F989808185FF15C0B3
:100260009FB7F894EE89FF896083E889F9898081D6
:100270008370806480839FBF81E090E0DF91CF91A5
:100280001F910F91FF90EF900895F62E0B8D10E0C7
:100290000F5F1F4F0F731127E02E8C8D8E110CC036
:1002A0000FB607FCFACFE889F989808185FFF5CF81
:1002B000CE010E94FC00F1CFEB8DEC0FFD2FF11D64
:1002C000E35AFF4FF0829FB7F8940B8FEA89FB89BE
:1002D00080818062CFCFCF93DF93EC01888D88231C
:1002E000B9F0AA89BB89E889F9898C9185FD03C099
:1002F000808186FD0DC00FB607FCF7CF8C9185FF7E
:10030000F2CF808185FFEDCFCE010E94FC00E9CFC6
:10031000DF91CF910895EFE6F0E080818D7F8083BB
:10032000A0E7B0E08C918D7F8C931092F101109238
:10033000F0018081826080830895CF93DF93CDB7F1
:10034000DEB781E090E09093C5028093C402FE0185
:10035000399680819181892B59F034968091C4021D
:100360009091C50201969093C5028093C402F1CF8B
:100370001092BB021092BA0281E393E09093B10213
:100380008093B0028AE090E09093A7028093A60247
:10039000FE01399621E030E08091C4029091C502BF
:1003A00028173907ECF4C901880F991FDC01A654FE
:1003B000BD4F11961C921E9240815181DC01A055C7
:1003C000BD4F11965C934E93428153818A559D4F48
:1003D000DC0111965C934E932F5F3F4F3496DCCF38
:1003E000F89480E4809380008BE08093810081E02A
:1003F00080936F0089EF90E090938900809388004C
:100400007894DF91CF910895FC0101900020E9F7E5
:100410003197AF01481B590BBC0189E092E00C9465
:100420007E008F929F92AF92BF920F931F93CF93B4
:10043000DF93CDB7DEB7A1970FB6F894DEBF0FBE3E
:10044000CDBF19A2423008F44AE08E010F5D1F4F64
:10045000842E912CB12CA12CA50194010E945A0943
:10046000E62FB901CA01EA30F4F4E05DD801EE9359
:100470008D01232B242B252B79F790E080E010971A
:1004800019F0CD010E940402A1960FB6F894DEBFC8
:100490000FBECDBFDF91CF911F910F91BF90AF9055
:1004A0009F908F900895E95CE1CF4F925F926F9299
:1004B0007F928F929F92AF92BF92CF92DF92EF92F4
:1004C000FF920F931F93CF936B017C01742EAC01AD
:1004D0009B010E945509882399F080EE91E0CF910D
:1004E0001F910F91FF90EF90DF90CF90BF90AF9052
:1004F0009F908F907F906F905F904F900C9404022C
:1005000046015701E894B7F82FEF3FEF4FE75FE759
:10051000C501B4010E94550981110DC02FEF3FEFB5
:100520004FE75FE7C501B4010E948B0718161CF462
:1005300084EE91E0D4CF2FEF3FEF4FE75FE4C701A8
:10054000B6010E94E30818161CF488EE91E0C7CFAC
:100550002FEF3FEF4FE75FECC701B6010E948B071B
:1005600087FDF3CF20E030E0A901C701B6010E946A
:100570008B0710E000E087FF0AC06DE289E092E09F
:100580000E941E018C01F7FAF094F7F8F094C0E095
:1005900060E070E080E09FE37C1641F020E030E016
:1005A00040E251E40E949007CF5FF6CFA701960189
:1005B0000E941F072B013C010E9402084B015C01B5
:1005C0004AE00E9411027C01E00EF11ECC23C1F131
:1005D000C501B4010E9431089B01AC01C301B20105
:1005E0000E941E074B015C016EE289E092E00E94CE
:1005F0001E01E80EF91EC15018F120E030E040E283
:1006000051E4C501B4010E94E8082B013C010E949D
:1006100002084B01B12CA12C4AE0C501B4010E9493
:100620001102E80EF91EC501B4010E9431089B01B8
:10063000AC01C301B2010E941E074B015C01DBCF7C
:10064000C701CF911F910F91FF90EF90DF90CF9056
:10065000BF90AF909F908F907F906F905F904F90E2
:1006600008954F925F926F927F92AF92BF92CF9216
:10067000DF92EF92FF920F931F93CF93DF9381E46A
:1006800080937C0080917A00806480937A008091CE
:100690007A0086FDFCCF609178007091790000911E
:1006A000F3011091F401C091F701D091F8017E019E
:1006B0008FEFE81AF80AF092F801E092F701CC0FF8
:1006C000DD1FCC0FDD1FC00FD11F7250072E000C95
:1006D000880B990B0E943308688379838A839B83F4
:1006E000C090F901D090FA01EC14FD0421F41092AD
:1006F000F8011092F701C091F701D091F801A09094
:10070000F501B090F601F12CE12C412C512C320175
:10071000EC14FD0421F1209701F12197F50161917D
:100720007191819191915F01FE01EE0FFF1FEE0F1C
:10073000FF1FE00FF11F20813181428153810E9410
:10074000E8089B01AC01C301B2010E941F072B0105
:100750003C01FFEFEF1AFF0ADBCFE601DECF42E0FC
:10076000C301B2010E9455028CEE91E0DF91CF915E
:100770001F910F91FF90EF90DF90CF90BF90AF90BF
:100780007F906F905F904F900C9404021F920F9295
:100790000FB60F9211242F933F938F939F93AF9394
:1007A000BF938091050290910602A0910702B0913B
:1007B00008023091040223E0230F2D3758F50196EB
:1007C000A11DB11D2093040280930502909306029F
:1007D000A0930702B0930802809100029091010259
:1007E000A0910202B09103020196A11DB11D809358
:1007F000000290930102A0930202B0930302BF9102
:10080000AF919F918F913F912F910F900FBE0F90BD
:100810001F90189526E8230F0296A11DB11DD2CF77
:100820001F920F920FB60F9211242F933F934F9365
:100830005F936F937F938F939F93AF93BF93EF9348
:10084000FF9389E092E00E94FC00FF91EF91BF913D
:10085000AF919F918F917F916F915F914F913F9158
:100860002F910F900FBE0F901F9018951F920F920F
:100870000FB60F9211242F938F939F93EF93FF93B3
:10088000E0911902F0911A028081E0911F02F0912B
:10089000200282FD1BC09081809122028F5F8F73A6
:1008A00020912302821741F0E0912202F0E0E75FFD
:1008B000FD4F958F80932202FF91EF919F918F9131
:1008C0002F910F900FBE0F901F9018958081F4CF3D
:1008D0001F920F920FB60F921124CF92DF92EF92D8
:1008E000FF922F933F934F935F936F937F938F93D9
:1008F0009F93AF93BF93EF93FF93F894609184001D
:100900007091850078946F5F7F4F90E080E00E9447
:10091000310820E030E040E853E40E94E80820E09D
:1009200034E244E75BE40E94900720E030E040E0DE
:100930005FE30E94E80820E030E84BEB54E40E94BB
:10094000E8086B017C0120E030E048E452E40E94BA
:10095000E308181644F580E090E0A8E4B2E4809340
:10096000FB019093FC01A093FD01B093FE010E9456
:100970008B0181E08093FF011092F201FF91EF91D2
:10098000BF91AF919F918F917F916F915F914F91A7
:100990003F912F91FF90EF90DF90CF900F900FBE7F
:1009A0000F901F901895C092FB01D092FC01E0922D
:1009B000FD01F092FE01DBCF1F920F920FB60F9256
:1009C00011242F933F934F935F936F937F938F9354
:1009D0009F93AF93BF93EF93FF9320E030E048E401
:1009E00052E46091FB017091FC018091FD019091B6
:1009F000FE010E94E308181664F480E090E0A8E489
:100A0000B2E48093FB019093FC01A093FD01B093AD
:100A1000FE010E948B0181E08093FF011092F201A0
:100A2000FF91EF91BF91AF919F918F917F916F91C6
:100A30005F914F913F912F910F900FBE0F901F909C
:100A400018951F920F920FB60F9211248F939F93B8
:100A50008091F0019091F10101969093F1018093C2
:100A6000F0018037910558F485B190E2892785B966
:100A70009F918F910F900FBE0F901F90189585B189
:100A800090E2892785B9809170008D7F80937000F6
:100A900080916F00826080936F0084E590E0909376
:100AA000850080938400E4CF1F920F920FB60F92BF
:100AB00011242F933F934F935F936F937F938F9363
:100AC0009F93AF93BF93EF93FF938091F2018111B6
:100AD0000AC081E08093F2010E948B018091700036
:100AE000826080937000FF91EF91BF91AF919F91D1
:100AF0008F917F916F915F914F913F912F910F90C7
:100B00000FBE0F901F9018951F920F920FB60F9265
:100B100011240F931F932F933F934F935F936F93E2
:100B20007F938F939F93AF93BF93CF93DF93EF9375
:100B3000FF93D0E0C0E08091C4029091C502C81735
:100B4000D9072CF5CE01880F991F8C0106541D4F33
:100B5000D8014D915C911197FC01EA55FD4F208120
:100B60003181421753075CF080559D4FDC01ED91B8
:100B7000FC910995F801118210822196DCCF8D91AC
:100B80009C911197019611969C938E93F6CFFF91AD
:100B9000EF91DF91CF91BF91AF919F918F917F9115
:100BA0006F915F914F913F912F911F910F910F90F6
:100BB0000FBE0F901F901895789484B5826084BD05
:100BC00084B5816084BD85B5826085BD85B5816051
:100BD00085BD80916E00816080936E0010928100CF
:100BE000809181008260809381008091810081608A
:100BF000809381008091800081608093800080914B
:100C0000B10084608093B1008091B00081608093D6
:100C1000B00080917A00846080937A0080917A009D
:100C2000826080937A0080917A00816080937A005C
:100C300080917A00806880937A001092C100E091E0
:100C40001902F0911A0282E08083E0911502F0917E
:100C500016021082E0911702F09118028FEC808347
:100C600010922102E0911D02F0911E0286E0808325
:100C7000E0911B02F0911C02808180618083E091F1
:100C80001B02F0911C02808188608083E0911B022E
:100C9000F0911C02808180688083E0911B02F091BA
:100CA0001C0280818F7D80831092810010928000D1
:100CB00080918100886080938100809181008460B0
:100CC000809381008CE190E190938900809388006B
:100CD0001092B1001092B0008091B10081608093B9
:100CE000B1008091B00082608093B00087EC809367
:100CF000B3008AE08093690083E08DBBE0EAF0E016
:100D00002491EBE8F0E084918823C1F090E0880F13
:100D1000991FFC01EE58FF4FC591D491FC01E85991
:100D2000FF4FA591B4919FB7F8948881E22FE09589
:100D30008E2388838C91E823EC939FBF88EC90E00E
:100D40000E9482098093F3019093F401FC0188537F
:100D50009F4F1192119211921192E817F907C9F75A
:100D600088E191E09093F6018093F50182E390E0B1
:100D70009093FA018093F9011092F8011092F70113
:100D80001F921F921F928AE08F9381E393E09F93BB
:100D90008F930E949D010F900F900F900F900F90D6
:100DA0000F90C0E0D0E08091FF01882389F060912E
:100DB000FB017091FC018091FD019091FE0146E0E4
:100DC0000E9455028CEE91E00E9404021092FF01F5
:100DD000209749F30E94E800882329F30E9400002D
:100DE000E2CFE9E0F2E01382128288EE93E0A0E025
:100DF000B0E084839583A683B7838AE091E09183F2
:100E0000808385EC90E09587848784EC90E09787D9
:100E1000868780EC90E0918B808B81EC90E0938BC7
:100E2000828B82EC90E0958B848B86EC90E0978BA4
:100E3000868B118E128E138E148E08955058BB27F8
:100E4000AA270E9436070C94A9080E949B0838F034
:100E50000E94A20820F039F49F3F19F426F40C9464
:100E600098080EF4E095E7FB0C949208E92F0E9495
:100E7000BA0858F3BA17620773078407950720F07A
:100E800079F4A6F50C94DC080EF4E0950B2EBA2F3D
:100E9000A02D0B01B90190010C01CA01A001112480
:100EA000FF27591B99F0593F50F4503E68F11A162C
:100EB000F040A22F232F342F4427585FF3CF4695BD
:100EC00037952795A795F0405395C9F77EF41F16DF
:100ED000BA0B620B730B840BBAF09150A1F0FF0FA9
:100EE000BB1F661F771F881FC2F70EC0BA0F621F95
:100EF000731F841F48F4879577956795B795F79585
:100F00009E3F08F0B0CF9395880F08F09927EE0F19
:100F10009795879508950E946E0808F481E00895DA
:100F20000E94A4070C94A9080E94A20858F00E94ED
:100F30009B0840F029F45F3F29F00C94920851116E
:100F40000C94DD080C9498080E94BA0868F3992361
:100F5000B1F3552391F3951B550BBB27AA276217B5
:100F60007307840738F09F5F5F4F220F331F441FC2
:100F7000AA1FA9F335D00E2E3AF0E0E832D09150F6
:100F80005040E695001CCAF72BD0FE2F29D0660FE3
:100F9000771F881FBB1F261737074807AB07B0E826
:100FA00009F0BB0B802DBF01FF2793585F4F3AF02C
:100FB0009E3F510578F00C9492080C94DD085F3F39
:100FC000E4F3983ED4F3869577956795B795F795B2
:100FD0009F5FC9F7880F911D9695879597F908959A
:100FE000E1E0660F771F881FBB1F62177307840736
:100FF000BA0720F0621B730B840BBA0BEE1F88F745
:10100000E09508950E94C20888F09F5798F0B92F84
:101010009927B751B0F0E1F0660F771F881F991F2D
:101020001AF0BA95C9F714C0B13091F00E94DC08EB
:10103000B1E008950C94DC08672F782F8827B85FFB
:1010400039F0B93FCCF3869577956795B395D9F785
:101050003EF490958095709561957F4F8F4F9F4F8F
:101060000895E89409C097FB3EF49095809570959B
:1010700061957F4F8F4F9F4F9923A9F0F92F96E9E4
:10108000BB279395F695879577956795B795F11159
:10109000F8CFFAF4BB0F11F460FF1BC06F5F7F4FF6
:1010A0008F4F9F4F16C0882311F096E911C0772308
:1010B00021F09EE8872F762F05C0662371F096E811
:1010C000862F70E060E02AF09A95660F771F881FE0
:1010D000DAF7880F9695879597F90895990F000884
:1010E000550FAA0BE0E8FEEF16161706E807F907FA
:1010F000C0F012161306E407F50798F0621B730B95
:10110000840B950B39F40A2661F0232B242B252B15
:1011100021F408950A2609F4A140A6958FEF811DB8
:10112000811D089597F99F6780E870E060E0089559
:101130009FEF80EC089500240A94161617061806EF
:101140000906089500240A941216130614060506CB
:101150000895092E0394000C11F4882352F0BB0F5C
:1011600040F4BF2B11F460FF04C06F5F7F4F8F4FBF
:101170009F4F089557FD9058440F551F59F05F3FFA
:1011800071F04795880F97FB991F61F09F3F79F0A9
:1011900087950895121613061406551FF2CF46952B
:1011A000F1DF08C0161617061806991FF1CF8695AD
:1011B0007105610508940895E894BB276627772791
:1011C000CB0197F908950E946E0808F48FEF0895F7
:1011D0000E94FB080C94A9080E949B0838F00E940A
:1011E000A20820F0952311F00C9492080C94980812
:1011F00011240C94DD080E94BA0870F3959FC1F386
:10120000950F50E0551F629FF001729FBB27F00DB4
:10121000B11D639FAA27F00DB11DAA1F649F662709
:10122000B00DA11D661F829F2227B00DA11D621F58
:10123000739FB00DA11D621F839FA00D611D221F12
:10124000749F3327A00D611D231F849F600D211DF6
:10125000822F762F6A2F11249F5750409AF0F1F079
:1012600088234AF0EE0FFF1FBB1F661F771F881FE2
:1012700091505040A9F79E3F510580F00C94920880
:101280000C94DD085F3FE4F3983ED4F386957795A0
:101290006795B795F795E7959F5FC1F7FE2B880F88
:1012A000911D9695879597F908950E946E08880B71
:1012B000990B0895A1E21A2EAA1BBB1BFD010DC0BC
:1012C000AA1FBB1FEE1FFF1FA217B307E407F507F6
:1012D00020F0A21BB30BE40BF50B661F771F881FD2
:1012E000991F1A9469F760957095809590959B0168
:1012F000AC01BD01CF010895EE0FFF1F0590F491E1
:10130000E02D09940F931F93CF93DF9382309105C3
:1013100010F482E090E0E091C802F091C90230E060
:1013200020E0B0E0A0E0309799F42115310509F4F0
:101330004AC0281B390B24303105D8F58A819B819E
:101340006115710589F1FB0193838283FE0111C050
:10135000408151810281138148175907E0F04817F5
:10136000590799F4109761F012960C9312971396FF
:101370001C933296CF01DF91CF911F910F91089569
:101380000093C8021093C902F4CF2115310551F022
:101390004217530738F0A901DB019A01BD01DF01B3
:1013A000F801C1CFEF01F9CF9093C9028093C80231
:1013B000CDCFFE01E20FF31F8193919322503109AB
:1013C00039832883D7CF2091C6023091C702232BBF
:1013D00041F420910201309103013093C702209320
:1013E000C60220910001309101012115310541F41F
:1013F0002DB73EB74091040150910501241B350BD8
:10140000E091C602F091C702E217F307A0F42E1B89
:101410003F0B2817390778F0AC014E5F5F4F241758
:10142000350748F04E0F5F1F5093C7024093C60226
:10143000819391939FCFF0E0E0E09CCFCF93DF9337
:101440000097E9F0FC01329713821282A091C80242
:10145000B091C902ED0130E020E01097A1F42081A5
:101460003181820F931F2091C6023091C702281745
:10147000390709F061C0F093C702E093C602DF911B
:10148000CF910895EA01CE17DF07E8F54A815B8125
:101490009E0141155105B1F7E901FB83EA834991AA
:1014A0005991C40FD51FEC17FD0761F4808191811C
:1014B0000296840F951FE901998388838281938125
:1014C0009B838A83F0E0E0E012968D919C911397C4
:1014D0000097B9F52D913C911197CD010296820F9D
:1014E000931F2091C6023091C7022817390739F699
:1014F000309751F51092C9021092C802B093C702FA
:10150000A093C602BCCFD383C28340815181840F94
:10151000951FC817D90761F44E5F5F4F8881998185
:10152000480F591F518340838A819B819383828313
:101530002115310509F0B0CFF093C902E093C8023C
:101540009ECFFD01DC01C0CF13821282D7CFF89469
:10155000FFCF0000CA028000000000001E017E00D4
:10156000AB006B01DC00BA00CE00796C82BAC11FFF
:1015700014B96940B03A91D5C0B9A40603BBEB8554
:10158000C43A6D202F3B028A6EBB162833BBDA8D1E
:10159000E23BD5D9A83AD66334BCF2452F3B59F487
:1015A000763CABD725BC7F9B90BCEBC4B33CABEB8C
:1015B000873CB60E21BD050A09BC933B863D3DD54F
:1015C00080BC5B1DEFBDADE7D83DDD88F93EDD8811
:1015D000F93EADE7D83D5B1DEFBD3DD580BC933BEB
:1015E000863D050A09BCB60E21BDABEB873CEBC4BA
:1015F000B33C7F9B90BCABD725BC59F4763CF245FD
:101600002F3BD66334BCD5D9A83ADA8DE23B1628F5
:1016100033BB028A6EBB6D202F3BEB85C43AA40618
:1016200003BB91D5C0B96940B03AC11F14B9796CF8
:1016300082BA6E616E00696E66006F7666000D0A92
:021640000000A8
:107E00001F92CDB7DEB7112484B714BE982F9D7092
:107E100009F0D7D085E08093810082E08093C00094
:107E200088E18093C10086E08093C20082E2809363
:107E3000C4008EE0B1D0259A26E080E39CEF31E0CB
:107E4000909385008093840036BBB09BFECF1D9A33
:107E5000A8952150A9F7812C912C93E0F92EEE24BE
:107E6000E39425E0D22E31E1C32E8AD0813479F417
:107E700087D0898397D08981823811F482E005C048
:107E8000813811F486E001C083E073D06FC0823482
:107E900011F484E103C0853419F485E08BD066C009
:107EA000853541F46DD0882E6BD0912C982A880CA2
:107EB000991C5BC0863521F484E07CD080E0E5CF5E
:107EC000843609F036C05CD05BD0B82E59D0A82ECD
:107ED00000E011E055D0F80181938F01BE12FACF76
:107EE00061D0F5E4AF1201C0FFCFF401F7BEE89511
:107EF00007B600FCFDCFB401A0E0B1E02C911296D2
:107F0000AD0141505109FA01808130E0382BFB016D
:107F10000901E7BEE89511246E5F7F4FBA12EECFDC
:107F2000F401D7BEE89507B600FCFDCFC7BEE895C3
:107F30001DC0843769F424D023D0B82E21D032D08C
:107F40008401F80185918F0114D0BA94D1F70EC045
:107F5000853739F427D08EE10CD085E90AD08FE03F
:107F600094CF813511F488E017D01CD080E101D086
:107F70007CCF9091C00095FFFCCF8093C600089500
:107F80008091C00087FFFCCF8091C00084FD01C0BC
:107F9000A8958091C6000895E0E6F0E098E190830E
:107FA00080830895EDDF803219F088E0F5DFFFCFA0
:107FB00084E1DFCFCF93C82FE3DFC150E9F7CF9142
:0E7FC000F1CF282E80E0E8DFE0E0FF270994F3
:027FFE00020679
:00000001FF
