:020000040000FA
:100000000C9435000C9471020C945D030C945D000B
:100010000C945D000C945D000C945D000C942A031C
:100020000C945D000C945D000C945D000C94E50252
:100030000C945D000C945D000C945D000C945D00CC
:100040000C94CF010C945D000C943F020C941902A7
:100050000C945D000C945D000C945D000C945D00AC
:100060000C945D000C945D00E30411241FBECFEFDF
:10007000D8E0DEBFCDBF11E0A0E0B1E0ECEEFEE0E5
:1000800002C005900D92A232B107D9F721E0A2E299
:10009000B1E001C01D92A03DB207E1F710E0C5E359
:1000A000D0E004C02197FE010E946E07C433D1073F
:1000B000C9F70E948D030C9474070C940000AF9252
:1000C000BF92CF92DF92EF92FF920F931F93CF9345
:1000D000DF936C017B018B01040F151FEB015E01A7
:1000E000AE18BF08C017D10759F06991D601ED913C
:1000F000FC910190F081E02DC6010995892B79F7DB
:10010000C501DF91CF911F910F91FF90EF90DF908C
:10011000CF90BF90AF900895FC01538D448D252F53
:1001200030E0842F90E0821B930B541710F0CF9691
:10013000089501970895FC01918D828D981761F0C3
:10014000A28DAE0FBF2FB11D5D968C91928D9F5FDA
:100150009F73928F90E008958FEF9FEF0895FC01B9
:10016000918D828D981731F0828DE80FF11D858D6C
:1001700090E008958FEF9FEF0895FC01918D228DFF
:10018000892F90E0805C9F4F821B91098F73992784
:10019000089583E391E00E94BD0021E0892B09F4DA
:1001A00020E0822F089580E090E0892B29F00E94C2
:1001B000C90081110C9400000895FC01A48DA80FC2
:1001C000B92FB11DA35ABF4F2C91848D90E0019699
:1001D0008F739927848FA689B7892C93A089B189B9
:1001E0008C91837080648C93938D848D981306C05A
:1001F0000288F389E02D80818F7D80830895EF92BE
:10020000FF920F931F93CF93DF93EC0181E0888FD0
:100210009B8D8C8D98131AC0E889F989808185FFA0
:1002200015C09FB7F894EE89FF896083E889F98942
:1002300080818370806480839FBF81E090E0DF9144
:10024000CF911F910F91FF90EF900895F62E0B8D97
:1002500010E00F5F1F4F0F731127E02E8C8D8E1152
:100260000CC00FB607FCFACFE889F989808185FFB9
:10027000F5CFCE010E94DD00F1CFEB8DEC0FFD2F0D
:10028000F11DE35AFF4FF0829FB7F8940B8FEA8974
:10029000FB8980818062CFCFCF93DF93EC01888D83
:1002A0008823B9F0AA89BB89E889F9898C9185FDF1
:1002B00003C0808186FD0DC00FB607FCF7CF8C917F
:1002C00085FFF2CF808185FFEDCFCE010E94DD005A
:1002D000E9CFDF91CF910895EFE6F0E080818D7F47
:1002E0008083A0E7B0E08C918D7F8C9310922301E6
:1002F000109222018081826080830895FC01019028
:100300000020E9F73197AF01481B590BBC0183E38B
:1003100091E00C945F008F929F92AF92BF920F93E7
:100320001F93CF93DF93CDB7DEB7A1970FB6F894A5
:10033000DEBF0FBECDBF19A2423008F44AE08E01E5
:100340000F5D1F4F842E912CB12CA12CA50194017F
:100350000E944C07E62FB901CA01EA30F4F4E05DCF
:10036000D801EE938D01232B242B252B79F790E0D8
:1003700080E0109719F0CD010E947E01A1960FB682
:10038000F894DEBF0FBECDBFDF91CF911F910F91CB
:10039000BF90AF909F908F900895E95CE1CF1F923E
:1003A0000F920FB60F9211242F933F938F939F9329
:1003B000AF93BF9380912F0190913001A0913101B3
:1003C000B091320130912E0123E0230F2D3758F5E3
:1003D0000196A11DB11D20932E0180932F019093B2
:1003E0003001A0933101B093320180912A019091A4
:1003F0002B01A0912C01B0912D010196A11DB11DE1
:1004000080932A0190932B01A0932C01B0932D018E
:10041000BF91AF919F918F913F912F910F900FBE00
:100420000F901F90189526E8230F0296A11DB11D6D
:10043000D2CF1F920F920FB60F9211242F933F939A
:100440004F935F936F937F938F939F93AF93BF93DC
:10045000EF93FF9383E391E00E94DD00FF91EF9122
:10046000BF91AF919F918F917F916F915F914F91CC
:100470003F912F910F900FBE0F901F9018951F92D4
:100480000F920FB60F9211242F938F939F93EF9398
:10049000FF93E0914301F09144018081E091490193
:1004A000F0914A0182FD1BC0908180914C018F5FC9
:1004B0008F7320914D01821741F0E0914C01F0E0E3
:1004C000ED5CFE4F958F80934C01FF91EF919F91D2
:1004D0008F912F910F900FBE0F901F9018958081D4
:1004E000F4CF1F920F920FB60F921124CF92DF928A
:1004F000EF92FF922F933F934F935F936F937F936E
:100500008F939F93AF93BF93EF93FF93F894609172
:1005100084007091850078946F5F7F4F90E080E059
:100520000E94230620E030E040E853E40E94DA060F
:1005300020E034E244E75BE40E94820520E030E002
:1005400040E05FE30E94DA0620E030E84BEB54E441
:100550000E94DA066B017C0120E030E048E452E4BE
:100560000E94D506181644F580E090E0A8E4B2E4B5
:100570008093250190932601A0932701B093280131
:100580000E946C0181E08093290110922401FF9167
:10059000EF91BF91AF919F918F917F916F915F91FB
:1005A0004F913F912F91FF90EF90DF90CF900F9060
:1005B0000FBE0F901F901895C0922501D092260172
:1005C000E0922701F0922801DBCF1F920F920FB625
:1005D0000F9211242F933F934F935F936F937F93C9
:1005E0008F939F93AF93BF93EF93FF9320E030E0FF
:1005F00048E452E460912501709126018091270121
:10060000909128010E94D506181664F480E090E0CD
:10061000A8E4B2E48093250190932601A0932701DA
:10062000B09328010E946C0181E08093290110920F
:100630002401FF91EF91BF91AF919F918F917F9195
:100640006F915F914F913F912F910F900FBE0F903F
:100650001F9018951F920F920FB60F9211248F932F
:100660009F93809122019091230101969093230101
:10067000809322018037910558F485B190E2892753
:1006800085B99F918F910F900FBE0F901F90189575
:1006900085B190E2892785B9809170008D7F809324
:1006A000700080916F00826080936F0084E590E01D
:1006B0009093850080938400E4CF1F920F920FB631
:1006C0000F9211242F933F934F935F936F937F93D8
:1006D0008F939F93AF93BF93EF93FF9380912401E8
:1006E00081110AC081E0809324010E946C018091F5
:1006F0007000826080937000FF91EF91BF91AF9185
:100700009F918F917F916F915F914F913F912F9129
:100710000F900FBE0F901F901895789484B582604B
:1007200084BD84B5816084BD85B5826085BD85B595
:10073000816085BD80916E00816080936E00109213
:10074000810080918100826080938100809181008E
:10075000816080938100809180008160809380001F
:100760008091B10084608093B1008091B00081607D
:100770008093B00080917A00846080937A008091A9
:100780007A00826080937A0080917A008160809301
:100790007A0080917A00806880937A001092C1007C
:1007A000E0914301F091440182E08083E0913F01B8
:1007B000F09140011082E0914101F09142018FECF3
:1007C000808310924B01E0914701F091480186E04F
:1007D0008083E0914501F0914601808180618083B2
:1007E000E0914501F0914601808188608083E0912D
:1007F0004501F0914601808180688083E091450148
:10080000F091460180818F7D80831092810010924B
:1008100080008091810088608093810080918100B8
:100820008460809381008CE190E1909389008093B3
:1008300088001092B1001092B0008091B1008160E8
:100840008093B1008091B00082608093B00087EC0B
:100850008093B3008AE08093690083E08DBBC0E0A1
:10086000D0E0809129018823D1F0C0902501D0905B
:100870002601E0902701F0902801A7019601C70109
:10088000B6010E944707882399F082E191E00E9417
:100890007E018EE191E00E947E0110922901209755
:1008A00001F30E94C9008823E1F20E940000D9CF21
:1008B00046015701E894B7F82FEF3FEF4FE75FE7A6
:1008C000C501B4010E94470781110DC02FEF3FEF12
:1008D0004FE75FE7C501B4010E947D0518161CF4BF
:1008E00086E191E0D4CF2FEF3FEF4FE75FE4C70100
:1008F000B6010E94D50618161CF48AE191E0C7CF14
:100900002FEF3FEF4FE75FECC701B6010E947D0577
:1009100087FDF3CF20E030E0A901C701B6010E94B6
:100920007D0587FF09C06DE283E391E00E94FF002F
:10093000F7FAF094F7F8F0942CEB37E346E055E340
:10094000C701B6010E9411056B017C010E94F405EC
:100950004B015C010E9423069B01AC01C701B6015B
:100960000E9410056B017C014AE0C501B4010E94A0
:100970008B016EE283E391E00E94FF0017E01150CB
:1009800009F487CF20E030E040E251E4C701B6012E
:100990000E94DA064B015C010E94F4056B01F12C08
:1009A000E12C4AE0C701B6010E948B01C701B601E4
:1009B0000E9423069B01AC01C501B4010E941005F1
:1009C0006B017C01DCCFE3E3F1E01382128288EE5D
:1009D00093E0A0E0B0E084839583A683B78384E0AE
:1009E00091E09183808385EC90E09587848784EC07
:1009F00090E09787868780EC90E0918B808B81ECEC
:100A000090E0938B828B82EC90E0958B848B86ECCC
:100A100090E0978B868B118E128E138E148E089514
:100A20005058BB27AA270E9428050C949B060E94B9
:100A30008D0638F00E94940620F039F49F3F19F497
:100A400026F40C948A060EF4E095E7FB0C948406D9
:100A5000E92F0E94AC0658F3BA17620773078407A0
:100A6000950720F079F4A6F50C94CE060EF4E095E7
:100A70000B2EBA2FA02D0B01B90190010C01CA0158
:100A8000A0011124FF27591B99F0593F50F4503E03
:100A900068F11A16F040A22F232F342F4427585FF5
:100AA000F3CF469537952795A795F0405395C9F70D
:100AB0007EF41F16BA0B620B730B840BBAF09150C5
:100AC000A1F0FF0FBB1F661F771F881FC2F70EC064
:100AD000BA0F621F731F841F48F487957795679537
:100AE000B795F7959E3F08F0B0CF9395880F08F023
:100AF0009927EE0F9795879508950E94600608F450
:100B000081E008950E9496050C949B060E9494062D
:100B100058F00E948D0640F029F45F3F29F00C94B4
:100B2000840651110C94CF060C948A060E94AC06E0
:100B300068F39923B1F3552391F3951B550BBB270C
:100B4000AA2762177307840738F09F5F5F4F220F51
:100B5000331F441FAA1FA9F335D00E2E3AF0E0E848
:100B600032D091505040E695001CCAF72BD0FE2F92
:100B700029D0660F771F881FBB1F26173707480726
:100B8000AB07B0E809F0BB0B802DBF01FF279358DE
:100B90005F4F3AF09E3F510578F00C9484060C9418
:100BA000CF065F3FE4F3983ED4F38695779567953B
:100BB000B795F7959F5FC9F7880F911D9695879513
:100BC00097F90895E1E0660F771F881FBB1F621732
:100BD00073078407BA0720F0621B730B840BBA0BF0
:100BE000EE1F88F7E09508950E94B40688F09F579D
:100BF00098F0B92F9927B751B0F0E1F0660F771F41
:100C0000881F991F1AF0BA95C9F714C0B13091F036
:100C10000E94CE06B1E008950C94CE06672F782F7F
:100C20008827B85F39F0B93FCCF3869577956795FB
:100C3000B395D9F73EF490958095709561957F4F67
:100C40008F4F9F4F0895E89409C097FB3EF490950D
:100C50008095709561957F4F8F4F9F4F9923A9F095
:100C6000F92F96E9BB279395F69587957795679524
:100C7000B795F111F8CFFAF4BB0F11F460FF1BC068
:100C80006F5F7F4F8F4F9F4F16C0882311F096E9FB
:100C900011C0772321F09EE8872F762F05C06623A9
:100CA00071F096E8862F70E060E02AF09A95660F62
:100CB000771F881FDAF7880F9695879597F908951B
:100CC000990F0008550FAA0BE0E8FEEF161617065D
:100CD000E807F907C0F012161306E407F50798F0C5
:100CE000621B730B840B950B39F40A2661F0232BDE
:100CF000242B252B21F408950A2609F4A140A6955A
:100D00008FEF811D811D089597F99F6780E870E03E
:100D100060E008959FEF80EC089500240A94161671
:100D2000170618060906089500240A9412161306D9
:100D3000140605060895092E0394000C11F4882367
:100D400052F0BB0F40F4BF2B11F460FF04C06F5F83
:100D50007F4F8F4F9F4F089557FD9058440F551F59
:100D600059F05F3F71F04795880F97FB991F61F02D
:100D70009F3F79F087950895121613061406551FA4
:100D8000F2CF4695F1DF08C0161617061806991F10
:100D9000F1CF86957105610508940895E894BB2705
:100DA00066277727CB0197F908950E94600608F41B
:100DB0008FEF08950E94ED060C949B060E948D060D
:100DC00038F00E94940620F0952311F00C948406CC
:100DD0000C948A0611240C94CF060E94AC0670F382
:100DE000959FC1F3950F50E0551F629FF001729FD0
:100DF000BB27F00DB11D639FAA27F00DB11DAA1FDF
:100E0000649F6627B00DA11D661F829F2227B00D2B
:100E1000A11D621F739FB00DA11D621F839FA00DB6
:100E2000611D221F749F3327A00D611D231F849F06
:100E3000600D211D822F762F6A2F11249F5750405D
:100E40009AF0F1F088234AF0EE0FFF1FBB1F661FD8
:100E5000771F881F91505040A9F79E3F510580F0A1
:100E60000C9484060C94CF065F3FE4F3983ED4F3D1
:100E7000869577956795B795F795E7959F5FC1F745
:100E8000FE2B880F911D9695879597F908950E94DE
:100E90006006880B990B0895A1E21A2EAA1BBB1BB2
:100EA000FD010DC0AA1FBB1FEE1FFF1FA217B30736
:100EB000E407F50720F0A21BB30BE40BF50B661F4C
:100EC000771F881F991F1A9469F760957095809510
:100ED00090959B01AC01BD01CF010895EE0FFF1F5E
:100EE0000590F491E02D0994F894FFCF00000000E4
:100EF000FF005F008C004C01BD009B00AF006E61E5
:0E0F00006E00696E66006F7666000D0A0000D6
:107E00001F92CDB7DEB7112484B714BE982F9D7092
:107E100009F0D7D085E08093810082E08093C00094
:107E200088E18093C10086E08093C20082E2809363
:107E3000C4008EE0B1D0259A26E080E39CEF31E0CB
:107E4000909385008093840036BBB09BFECF1D9A33
:107E5000A8952150A9F7812C912C93E0F92EEE24BE
:107E6000E39425E0D22E31E1C32E8AD0813479F417
:107E700087D0898397D08981823811F482E005C048
:107E8000813811F486E001C083E073D06FC0823482
:107E900011F484E103C0853419F485E08BD066C009
:107EA000853541F46DD0882E6BD0912C982A880CA2
:107EB000991C5BC0863521F484E07CD080E0E5CF5E
:107EC000843609F036C05CD05BD0B82E59D0A82ECD
:107ED00000E011E055D0F80181938F01BE12FACF76
:107EE00061D0F5E4AF1201C0FFCFF401F7BEE89511
:107EF00007B600FCFDCFB401A0E0B1E02C911296D2
:107F0000AD0141505109FA01808130E0382BFB016D
:107F10000901E7BEE89511246E5F7F4FBA12EECFDC
:107F2000F401D7BEE89507B600FCFDCFC7BEE895C3
:107F30001DC0843769F424D023D0B82E21D032D08C
:107F40008401F80185918F0114D0BA94D1F70EC045
:107F5000853739F427D08EE10CD085E90AD08FE03F
:107F600094CF813511F488E017D01CD080E101D086
:107F70007CCF9091C00095FFFCCF8093C600089500
:107F80008091C00087FFFCCF8091C00084FD01C0BC
:107F9000A8958091C6000895E0E6F0E098E190830E
:107FA00080830895EDDF803219F088E0F5DFFFCFA0
:107FB00084E1DFCFCF93C82FE3DFC150E9F7CF9142
:0E7FC000F1CF282E80E0E8DFE0E0FF270994F3
:027FFE00020679
:00000001FF
