:020000040000FA
:100000000C9462000C948A000C948A000C948A0070
:100010000C948A000C948A000C948A000C948A0038
:100020000C948A000C948A000C948A000C948A0028
:100030000C948A000C948A000C948A000C948A0018
:100040000C9438020C948A000C94A8020C9482023E
:100050000C948A000C948A000C948A000C948A00F8
:100060000C948A000C948A000000000024002700F1
:100070002A000000000023002600290000000000E4
:10008000250028002B0004040404040404040202D4
:100090000202020203030303030301020408102007
:1000A0004080010204081020010204081020000012
:1000B0000008000201000003040700000000000027
:1000C0000000DF0411241FBECFEFD8E0DEBFCDBF9C
:1000D00022E0A2E5B1E001C01D92A430B207E1F731
:1000E00011E0A0E0B1E0E0EAFAE002C005900D9274
:1000F000A235B107D9F710E0C2E6D0E004C02197DD
:10010000FE010E944805C136D107C9F70E94DA02F4
:100110000C944E050C940000833081F028F481305B
:1001200099F08230A9F008958730A9F08830C9F09D
:100130008430B1F4809180008F7D03C08091800075
:100140008F7780938000089584B58F7784BD08955C
:1001500084B58F7DFBCF8091B0008F778093B00006
:1001600008958091B0008F7DF9CF1F93CF93DF93D7
:10017000EBEBF0E09491E7EAF0E0D491E3E9F0E012
:10018000C491CC23B9F0182F992319F0892F0E941C
:100190008C00EC2FF0E0EE0FFF1FE458FF4FA5910D
:1001A000B4918FB7F894EC91111108C0D095DE236B
:1001B000DC938FBFDF91CF911F910895DE2BF8CF95
:1001C0002FB7F8946091630170916401809165018B
:1001D000909166012FBF0895AF92BF92CF92DF92A8
:1001E000EF92FF920F931F93CF93DF936C017B01EC
:1001F0008B01040F151FEB015E01AE18BF08C0177D
:10020000D10759F06991D601ED91FC910190F081EF
:10021000E02DC6010995892B79F7C501DF91CF91B2
:100220001F910F91FF90EF90DF90CF90BF90AF9014
:100230000895FC01538D448D252F30E0842F90E0EC
:10024000821B930B541710F0CF96089501970895D1
:10025000FC01918D828D981761F0A28DAE0FBF2F9A
:10026000B11D5D968C91928D9F5F9F73928F90E0F0
:1002700008958FEF9FEF0895FC01918D828D98175F
:1002800031F0828DE80FF11D858D90E008958FEF9C
:100290009FEF08950F931F930E94E00060936F01FA
:1002A00070937001809371019093720187E691E0E1
:1002B0000E943C0197FF1DC00E94E00000916F0169
:1002C000109170012091710130917201601B710BCE
:1002D000820B930B00916B0110916C0120916D01C9
:1002E00030916E016017710782079307F8F28FEF64
:1002F0009FEF1F910F910895FC01918D228D892F01
:1003000090E0805C9F4F821B91098F73992708951D
:1003100087E691E00E947C0121E0892B09F420E02E
:10032000822F089580E090E0892B29F00E948801B7
:1003300081110C9400000895FC01A48DA80FB92F21
:10034000B11DA35ABF4F2C91848D90E001968F73FD
:100350009927848FA689B7892C93A089B1898C911C
:10036000837080648C93938D848D981306C002886B
:10037000F389E02D80818F7D80830895EF92FF9235
:100380000F931F93CF93DF93EC0181E0888F9B8DB8
:100390008C8D98131AC0E889F989808185FF15C072
:1003A0009FB7F894EE89FF896083E889F989808195
:1003B0008370806480839FBF81E090E0DF91CF9164
:1003C0001F910F91FF90EF900895F62E0B8D10E086
:1003D0000F5F1F4F0F731127E02E8C8D8E110CC0F5
:1003E0000FB607FCFACFE889F989808185FFF5CF40
:1003F000CE010E949C01F1CFEB8DEC0FFD2FF11D82
:10040000E35AFF4FF0829FB7F8940B8FEA89FB897C
:1004100080818062CFCFCF93DF93EC01888D8823DA
:10042000B9F0AA89BB89E889F9898C9185FD03C057
:10043000808186FD0DC00FB607FCF7CF8C9185FF3C
:10044000F2CF808185FFEDCFCE010E949C01E9CFE4
:10045000DF91CF910895FC0101900020E9F73197D9
:10046000AF01481B590BBC0187E691E00C94EC00EE
:100470001F920F920FB60F9211242F933F938F93D9
:100480009F93AF93BF938091630190916401A0917A
:100490006501B09166013091620123E0230F2D3791
:1004A00058F50196A11DB11D20936201809363014F
:1004B00090936401A0936501B093660180915E0101
:1004C00090915F01A0916001B09161010196A11D21
:1004D000B11D80935E0190935F01A0936001B09382
:1004E0006101BF91AF919F918F913F912F910F909B
:1004F0000FBE0F901F90189526E8230F0296A11D9E
:10050000B11DD2CF1F920F920FB60F9211242F93CD
:100510003F934F935F936F937F938F939F93AF938B
:10052000BF93EF93FF9387E691E00E949C01FF91B8
:10053000EF91BF91AF919F918F917F916F915F915B
:100540004F913F912F910F900FBE0F901F901895D4
:100550001F920F920FB60F9211242F938F939F9398
:10056000EF93FF93E0917701F09178018081E09122
:100570007D01F0917E0182FD1BC090818091800100
:100580008F5F8F7320918101821741F0E09180018C
:10059000F0E0E959FE4F958F80938001FF91EF9134
:1005A0009F918F912F910F900FBE0F901F901895D4
:1005B0008081F4CFCF93DF93CDB7DEB7A1970FB68D
:1005C000F894DEBF0FBECDBF789484B5826084BD41
:1005D00084B5816084BD85B5826085BD85B5816047
:1005E00085BD80916E00816080936E0010928100C5
:1005F0008091810082608093810080918100816080
:100600008093810080918000816080938000809140
:10061000B10084608093B1008091B00081608093CC
:10062000B00080917A00846080937A0080917A0093
:10063000826080937A0080917A00816080937A0052
:1006400080917A00806880937A001092C1006CE9F2
:10065000862E60E0962EF4012491E8E8F0E0849183
:100660008823C9F090E0880F991FFC01E859FF4FDB
:10067000A591B491FC01E458FF4F459154919FB767
:10068000F8943C91822F809583238C93FA0180818A
:10069000282B20839FBFE7EAF0E02491E3E9F0E014
:1006A0008491882399F090E0880F991FFC01E85904
:1006B000FF4FA591B491FC01E458FF4F85919491AF
:1006C0008FB7F894EC91E22BEC938FBFE091770118
:1006D000F091780182E08083E0917301F0917401E0
:1006E0001082E0917501F09176018FEC8083109279
:1006F0007F01E0917B01F0917C0186E08083E091B5
:100700007901F0917A01808180618083E0917901A3
:10071000F0917A01808188608083E0917901F09185
:100720007A01808180688083E0917901F0917A017B
:1007300080818F7D808390EB292E90E0392E2AE0F6
:10074000422E512C612C712C30E0A32E30E0B32EC0
:10075000F1018491F4011491E8E8F0E004910023A0
:1007600009F475C081110E948C00E02FF0E0EE0FBB
:10077000FF1FEE58FF4FA591B4918C91182391E083
:1007800080E009F490E0092F182FC0905C01D09010
:100790005D01C016D10651F00E94E000609358013F
:1007A0007093590180935A0190935B010E94E0007D
:1007B000209158013091590140915A0150915B01AB
:1007C000621B730B840B950B6333710581059105D7
:1007D00010F1C016D106F9F08091560190915701A1
:1007E00010935D0100935C01012BA9F421E030E03E
:1007F000009711F030E020E030935701209356012C
:10080000892B09F4D9C086E191E00E942B028FE484
:1008100091E00E942B02809156010E94B50087E66C
:1008200091E00E947C01181619060CF080C00E940D
:100830004A01FC0197FDBCC08D32910559F0C0976B
:100840000A9740F087E691E00E942801F0CF10E07F
:1008500000E09BCFC12CD12C760110E0E130F105F6
:10086000D9F0ED32F10509F4A1C0CF01C0970A9784
:1008700098F4AAE0B0E0A70196010E940C056F0170
:10088000FF0FEE08FF08C60ED71EE81EF91EF0E3A4
:10089000CF1AD108E108F10887E691E00E9428010B
:1008A0000E944A01FC01C0970A97C0F2E130F105AD
:1008B000A9F2112341F0F094E094D094C094C11CAB
:1008C000D11CE11CF11CC0920001D0920101E09208
:1008D0000201F092030181E391E00E942B0220913A
:1008E000000130910101409102015091030119A2D0
:1008F0008E010F5D1F4FCA01B901A30192010E9431
:100900002605605DF80162938F01211531054105CF
:10091000510589F7309719F0CF010E942B028BE423
:1009200091E00E942B028FE491E00E942B020E9432
:10093000E00020915601309157012130310551F5E9
:1009400000915201109153012091540130915501B1
:100950006B017C01C01AD10AE20AF30A009100017E
:10096000109101012091020130910301C016D106BE
:10097000E206F30678F0609352017093530180937E
:10098000540190935501109257011092560180E046
:100990000E94B500A114B10409F4DACE0E948801C6
:1009A000882309F4D5CE0E940000D2CE11E074CF86
:1009B000C12CD12C760187CF85E291E026CFE7E6E6
:1009C000F1E01382128288EE93E0A0E0B0E084832D
:1009D0009583A683B78388E091E09183808385EC3B
:1009E00090E09587848784EC90E09787868780ECF9
:1009F00090E0918B808B81EC90E0938B828B82ECEA
:100A000090E0958B848B86EC90E0978B868B118E93
:100A1000128E138E148E08950E941705A59F900DB7
:100A2000B49F900DA49F800D911D11240895A29F45
:100A3000B001B39FC001A39F700D811D1124911DB2
:100A4000B29F700D811D1124911D0895A1E21A2EEF
:100A5000AA1BBB1BFD010DC0AA1FBB1FEE1FFF1F62
:100A6000A217B307E407F50720F0A21BB30BE40BB2
:100A7000F50B661F771F881F991F1A9469F76095F9
:100A80007095809590959B01AC01BD01CF010895B3
:100A9000EE0FFF1F0590F491E02D0994F894FFCF1D
:100AA000E803000000000000BE01EC0019010B0289
:100AB0007C0128013C014C4544206465736C6967E6
:100AC00061646F2E004C4544206C696761646F2E31
:100AD00000496E74657276616C6F20616C7465722A
:100AE00061646F20706172613A2000206D73000DA7
:020AF0000A00FA
:107E0000112484B714BE81FFF0D085E080938100F7
:107E100082E08093C00088E18093C10086E0809377
:107E2000C20080E18093C4008EE0C9D0259A86E02C
:107E300020E33CEF91E0309385002093840096BBD3
:107E4000B09BFECF1D9AA8958150A9F7CC24DD24C4
:107E500088248394B5E0AB2EA1E19A2EF3E0BF2EE7
:107E6000A2D0813461F49FD0082FAFD0023811F036
:107E7000013811F484E001C083E08DD089C08234E0
:107E800011F484E103C0853419F485E0A6D080C0E4
:107E9000853579F488D0E82EFF2485D0082F10E0AE
:107EA000102F00270E291F29000F111F8ED06801E7
:107EB0006FC0863521F484E090D080E0DECF843638
:107EC00009F040C070D06FD0082F6DD080E0C81688
:107ED00080E7D80618F4F601B7BEE895C0E0D1E017
:107EE00062D089930C17E1F7F0E0CF16F0E7DF06D8
:107EF00018F0F601B7BEE89568D007B600FCFDCFD4
:107F0000A601A0E0B1E02C9130E011968C91119780
:107F100090E0982F8827822B932B1296FA010C0160
:107F200087BEE89511244E5F5F4FF1E0A038BF0790
:107F300051F7F601A7BEE89507B600FCFDCF97BE46
:107F4000E89526C08437B1F42ED02DD0F82E2BD052
:107F50003CD0F601EF2C8F010F5F1F4F84911BD097
:107F6000EA94F801C1F70894C11CD11CFA94CF0C13
:107F7000D11C0EC0853739F428D08EE10CD085E9AC
:107F80000AD08FE07ACF813511F488E018D01DD067
:107F900080E101D065CF982F8091C00085FFFCCF94
:107FA0009093C60008958091C00087FFFCCF809118
:107FB000C00084FD01C0A8958091C6000895E0E648
:107FC000F0E098E1908380830895EDDF803219F02E
:107FD00088E0F5DFFFCF84E1DECF1F93182FE3DFCA
:107FE0001150E9F7F2DF1F91089580E0E8DFEE27F6
:047FF000FF270994CA
:027FFE00040479
:00000001FF
