:100000000C945D000C9485000C9485000C94850084
:100010000C9485000C9485000C9485000C9485004C
:100020000C9485000C9485000C9485000C9485003C
:100030000C9485000C9485000C9485000C9485002C
:100040000C94AF010C9485000C9485000C948500F1
:100050000C9485000C9485000C9485000C9485000C
:100060000C9485000C94850000000008000201003B
:100070000003040700000000000000000000000072
:10008000250028002B0000000000240027002A0083
:10009000040404040404040402020202020203032E
:1000A0000303030301020408102040800102040836
:1000B00010200102040810209E0211241FBECFEF61
:1000C000D8E0DEBFCDBF11E0A0E0B1E0E4EEF5E0A6
:1000D00002C005900D92AA30B107D9F721E0AAE03D
:1000E000B1E001C01D92A933B207E1F710E0CDE500
:1000F000D0E004C02197FE010E94EA02CC35D1076E
:10010000C9F70E94F9010C94F0020C94000090E0F1
:10011000FC01EC55FF4F249180579F4FFC018491C7
:10012000882399F090E0880F991FFC01EA57FF4F50
:10013000A591B491FC01E458FF4F859194918FB73C
:10014000F894EC91E22BEC938FBF089590E0FC01C2
:10015000E859FF4F2491FC01EC55FF4F3491FC010D
:10016000E057FF4FE491EE23C9F0222339F023300A
:1001700001F1A8F4213019F1223029F1F0E0EE0F5D
:10018000FF1FE458FF4FA591B4918FB7F894EC91FD
:10019000611126C030953E233C938FBF08952730D0
:1001A000A9F02830C9F0243049F7809180008F7D74
:1001B00003C0809180008F7780938000DFCF84B56B
:1001C0008F7784BDDBCF84B58F7DFBCF8091B0006E
:1001D0008F778093B000D2CF8091B0008F7DF9CF20
:1001E0003E2BDACF3FB7F8948091350190913601DC
:1001F000A0913701B091380126B5A89B05C02F3FCB
:1002000019F00196A11DB11D3FBFBA2FA92F982F3C
:100210008827BC01CD01620F711D811D911D42E037
:10022000660F771F881F991F4A95D1F708958F92FF
:100230009F92AF92BF92CF92DF92EF92FF920E9475
:10024000F2004B015C018AEFC82ED12CE12CF12C7D
:100250000E94F200681979098A099B09683E734077
:1002600081059105A8F321E0C21AD108E108F1083F
:1002700088EE880E83E0981EA11CB11CC114D10425
:10028000E104F10429F7FF90EF90DF90CF90BF9049
:10029000AF909F908F90089561E08DE00E94A6003E
:1002A0000E94170160E08DE00E94A6000E941701E5
:1002B000F3CF61E084E00E94A6000E94170160E095
:1002C00084E00E94A6000E941701F3CFFC01428344
:1002D00053836483758386819781A085B185840F5C
:1002E000951FA61FB71F82879387A487B587089598
:1002F000CF93DF93EC01EE85FF85309709F00995E8
:100300008FB7F894409131015091320160913301DF
:10031000709134018FBF4E835F83688779878A81AC
:100320009B81AC81BD81840F951FA61FB71F8A8753
:100330009B87AC87BD87DF91CF9108950F931F9363
:10034000FC010285138524853585401B510B620B0A
:10035000730B80E077FF80891F910F9108951F92A2
:100360000F920FB60F9211242F933F938F939F9369
:10037000AF93BF938091310190913201A0913301ED
:10038000B09134013091300123E0230F2D3758F51F
:100390000196A11DB11D20933001809331019093EE
:1003A0003201A0933301B0933401809135019091D3
:1003B0003601A0913701B09138010196A11DB11D00
:1003C0008093350190933601A0933701B0933801A3
:1003D000BF91AF919F918F913F912F910F900FBE41
:1003E0000F901F90189526E8230F0296A11DB11DAE
:1003F000D2CF789484B5826084BD84B5816084BD99
:1004000085B5826085BD85B5816085BD80916E00B2
:10041000816080936E0010928100809181008260E3
:100420008093810080918100816080938100809120
:1004300080008160809380008091B100846080930F
:10044000B1008091B00081608093B00080917A000B
:10045000846080937A0080917A00826080937A0031
:1004600080917A00816080937A0080917A00806820
:1004700080937A001092C1008DE00E94870084E092
:100480000E9487008CE491E090932C0180932B01D3
:1004900044EF51E060E070E040931F015093200171
:1004A0006093210170932201809123019091240196
:1004B000A0912501B09126018C509E4FAF4FBF4FA8
:1004C0008093270190932801A0932901B0932A01DA
:1004D00021E020932D0189E591E09093190180930B
:1004E000180140930C0150930D0160930E0170931D
:1004F0000F018091100190911101A0911201B09112
:1005000013018C509E4FAF4FBF4F809314019093B7
:100510001501A0931601B093170120931A01C0E0B2
:10052000D0E08DE191E00E9478018AE091E00E94A4
:1005300078012097B1F30E940000F3CFEDE1F1E0E4
:1005400024E031E03183208381E0808B178616869A
:1005500012861386148615869FB7F8944091310150
:100560005091320160913301709134019FBF4683F5
:10057000578360877187F28BE18B1282138214821A
:1005800015824287538764877587EAE0F1E03183FB
:100590002083808B1786168612861386148615860E
:1005A0002FB7F8948091310190913201A0913301DD
:1005B000B09134012FBF86839783A087B187F28BD8
:1005C000E18B128213821482158282879387A4871B
:1005D000B5870895EE0FFF1F0590F491E02D099463
:0405E000F894FFCFBD
:0A05E4000000000066019E0178018E
:00000001FF
