:100000000C945D000C9485000C9485000C94850084
:100010000C9485000C9485000C9485000C9485004C
:100020000C9485000C9485000C9485000C9485003C
:100030000C9485000C9485000C9485000C9485002C
:100040000C94E7010C9485000C9485000C948500B9
:100050000C9485000C9485000C9485000C9485000C
:100060000C9485000C9485000000000024002700FB
:100070002A0000000000250028002B0004040404CE
:100080000404040402020202020203030303030342
:10009000010204081020408001020408102001021F
:1000A00004081020000000080002010000030407FB
:1000B0000000000000000000D90211241FBECFEF95
:1000C000D8E0DEBFCDBF11E0A0E0B1E0E8E5F7E0A9
:1000D00002C005900D92A431B107D9F721E0A4E147
:1000E000B1E001C01D92A637B207E1F710E0CDE5FF
:1000F000D0E004C02197FE010E94A403CC35D107B3
:10010000C9F70E9431020C94AA030C94000090E0FD
:10011000FC01EC55FF4F2491FC01E057FF4F349157
:10012000FC01E458FF4FE491EE23B1F0222339F0B3
:100130002330E9F090F4213001F1223011F1F0E0A8
:10014000EE0FFF1FEE58FF4FA591B4918FB7F894B3
:10015000EC913E2B3C938FBF08952730A9F02830B7
:10016000C9F0243061F7809180008F7D03C08091B9
:1001700080008F7780938000E2CF84B58F7784BD35
:10018000DECF84B58F7DFBCF8091B0008F778093D9
:10019000B000D5CF8091B0008F7DF9CFCF93DF93A2
:1001A000A6E5B1E0FD01C191D191209741F04989C7
:1001B0005A89EC0129893A8942175307D1F0D1E0D5
:1001C000E437FD0781F730E020E04D915D91452B4C
:1001D00091F4220F331FF901ED5BFE4F948B838B5B
:1001E00080917401909175010196909375018093AF
:1001F000740181E006C02F5F3F4F2F30310529F792
:1002000080E0DF91CF91089590E0FC01E057FF4F2F
:10021000249184589F4FFC018491882399F090E0A9
:10022000880F991FFC01E859FF4FA591B491FC017B
:10023000EE58FF4F859194918FB7F894EC91E22B93
:10024000EC938FBF08958DE00C94870084E00C94AC
:100250008700FC0142835383648375838681978181
:10026000A085B185840F951FA61FB71F828793872E
:10027000A487B58708958F929F92AF92BF92CF9235
:10028000DF92EF92FF920F931F93CF93DF93EC01D6
:10029000EE85FF85309709F009958FB7F894809027
:1002A0003F0190904001A0904101B09042018FBF6A
:1002B0008E010D5E1F4F6E0121E3C20ED11CF12C89
:1002C000E12C89A99AA9E816F90614F5D8018D91AF
:1002D0009D918D010097C9F0BFEFEB1AFB0ADC017D
:1002E000ED91FC910280F381E02DB501A401099507
:1002F000882359F0F801329780819181DC01ED91DA
:10030000FC910480F581E02D0995C016D106C9F64F
:100310008FB7F89440913F015091400160914101A5
:10032000709142018FBF4E835F83688779878A818E
:100330009B81AC81BD81840F951FA61FB71F8A8743
:100340009B87AC87BD87DF91CF911F910F91FF9065
:10035000EF90DF90CF90BF90AF909F908F900895D7
:10036000CF93DF93EC01EE85FF85309709F0099577
:100370008FB7F89440913F01509140016091410145
:10038000709142018FBF4E835F83688779878A812E
:100390009B81AC81BD81840F951FA61FB71F8A87E3
:1003A0009B87AC87BD87DF91CF9108950F931F93F3
:1003B000FC010285138524853585401B510B620B9A
:1003C000730B80E077FF80891F910F9108951F9232
:1003D0000F920FB60F9211242F933F938F939F93F9
:1003E000AF93BF9380913F0190914001A091410153
:1003F000B091420130913E0123E0230F2D3758F593
:100400000196A11DB11D20933E0180933F01909361
:100410004001A0934101B093420180913A01909133
:100420003B01A0913C01B0913D010196A11DB11D80
:1004300080933A0190933B01A0933C01B0933D011E
:10044000BF91AF919F918F913F912F910F900FBED0
:100450000F901F90189526E8230F0296A11DB11D3D
:10046000D2CF789484B5826084BD84B5816084BD28
:1004700085B5826085BD85B5816085BD80916E0042
:10048000816080936E001092810080918100826073
:1004900080938100809181008160809381008091B0
:1004A00080008160809380008091B100846080939F
:1004B000B1008091B00081608093B00080917A009B
:1004C000846080937A0080917A00826080937A00C1
:1004D00080917A00816080937A0080917A008068B0
:1004E00080937A001092C1008DE00E94040184E0A4
:1004F0000E94040184EF91E0A0E0B0E08093290124
:1005000090932A01A0932B01B0932C0180912D018F
:1005100090912E01A0912F01B09130018C509E4FEF
:10052000AF4FBF4F8093310190933201A0933301BD
:10053000B093340183E291E09093360180933501CA
:1005400080E991E0A0E0B0E080931601909317015C
:10055000A0931801B093190180911A0190911B0189
:10056000A0911C01B0911D0180579E4FAF4FBF4F0E
:1005700080931E0190931F01A0932001B09321014D
:1005800086E291E0909323018093220187E291E03B
:100590000E94CE0084E191E00E94CE00C0E0D0E055
:1005A00083E491E00E943B012097D1F30E94000078
:1005B000F7CF84E091E0909344018093430181E080
:1005C00080935301109252011092510110924D01EB
:1005D00010924E0110924F01109250012FB7F894D3
:1005E00080913F0190914001A0914101B091420161
:1005F0002FBF8093490190934A01A0934B01B09380
:100600004C0123E431E030935501209354011092C2
:1006100045011092460110924701109248018093C3
:100620004D0190934E01A0934F01B09350018EE085
:1006300091E09093440180934301109275011092D0
:100640007401E6E5F1E084E791E0119211928E17D2
:100650009F07D9F724E031E0309328012093270148
:1006600081E080933701109236011092350110928B
:1006700031011092320110923301109234019FB770
:10068000F89440913F015091400160914101709177
:1006900042019FBF40932D0150932E0160932F0183
:1006A00070933001E7E2F1E0F0933901E093380113
:1006B0001092290110922A0110922B0110922C0104
:1006C00040933101509332016093330170933401B0
:1006D000309315012093140180932401109223017B
:1006E0001092220110921E0110921F0110922001FF
:1006F000109221012FB7F89480913F019091400111
:10070000A0914101B09142012FBF80931A019093B3
:100710001B01A0931C01B0931D0124E131E0309333
:1007200026012093250110921601109217011092B4
:1007300018011092190180931E0190931F01A0933C
:100740002001B09321010895EE0FFF1F0590F49151
:08075000E02D0994F894FFCF9D
:10075800000000002901D601B001000000002901B5
:04076800D6013B017A
:00000001FF
